{
  "_format": "hh-sol-artifact-1",
  "contractName": "DocumentVerifier",
  "sourceName": "contracts/DocumentVerifier.sol",
  "abi": [
    {
      "inputs": [
        {
          "internalType": "string",
          "name": "",
          "type": "string"
        }
      ],
      "name": "documents",
      "outputs": [
        {
          "internalType": "string",
          "name": "docHash",
          "type": "string"
        },
        {
          "internalType": "uint256",
          "name": "timestamp",
          "type": "uint256"
        },
        {
          "internalType": "address",
          "name": "issuer",
          "type": "address"
        },
        {
          "internalType": "bool",
          "name": "isRegistered",
          "type": "bool"
        }
      ],
      "stateMutability": "view",
      "type": "function"
    },
    {
      "inputs": [
        {
          "internalType": "string",
          "name": "_hash",
          "type": "string"
        }
      ],
      "name": "registerDocument",
      "outputs": [],
      "stateMutability": "nonpayable",
      "type": "function"
    },
    {
      "inputs": [
        {
          "internalType": "string",
          "name": "_hash",
          "type": "string"
        }
      ],
      "name": "verifyDocument",
      "outputs": [
        {
          "internalType": "bool",
          "name": "",
          "type": "bool"
        },
        {
          "internalType": "uint256",
          "name": "",
          "type": "uint256"
        },
        {
          "internalType": "address",
          "name": "",
          "type": "address"
        }
      ],
      "stateMutability": "view",
      "type": "function"
    }
  ],
  "bytecode": "0x6080604052348015600f57600080fd5b50610cef8061001f6000396000f3fe608060405234801561001057600080fd5b50600436106100415760003560e01c80634847a47014610046578063b3dd697b14610062578063beee5eb714610095575b600080fd5b610060600480360381019061005b91906106f6565b6100c7565b005b61007c600480360381019061007791906106f6565b61025a565b60405161008c9493929190610833565b60405180910390f35b6100af60048036038101906100aa91906106f6565b610355565b6040516100be9392919061087f565b60405180910390f35b6000816040516100d791906108f2565b908152602001604051809103902060020160149054906101000a900460ff1615610136576040517f08c379a000000000000000000000000000000000000000000000000000000000815260040161012d90610955565b60405180910390fd5b60405180608001604052808281526020014281526020013373ffffffffffffffffffffffffffffffffffffffff1681526020016001151581525060008260405161018091906108f2565b908152602001604051809103902060008201518160000190816101a39190610b81565b506020820151816001015560408201518160020160006101000a81548173ffffffffffffffffffffffffffffffffffffffff021916908373ffffffffffffffffffffffffffffffffffffffff16021790555060608201518160020160146101000a81548160ff0219169083151502179055509050506102576040518060400160405280601c81526020017f446f63756d656e746f207265676973747261646f2120486173683a2000000000815250826104b0565b50565b600081805160208101820180518482526020830160208501208183528095505050505050600091509050806000018054610293906109a4565b80601f01602080910402602001604051908101604052809291908181526020018280546102bf906109a4565b801561030c5780601f106102e15761010080835404028352916020019161030c565b820191906000526020600020905b8154815290600101906020018083116102ef57829003601f168201915b5050505050908060010154908060020160009054906101000a900473ffffffffffffffffffffffffffffffffffffffff16908060020160149054906101000a900460ff16905084565b60008060008060008560405161036b91906108f2565b9081526020016040518091039020604051806080016040529081600082018054610394906109a4565b80601f01602080910402602001604051908101604052809291908181526020018280546103c0906109a4565b801561040d5780601f106103e25761010080835404028352916020019161040d565b820191906000526020600020905b8154815290600101906020018083116103f057829003601f168201915b50505050508152602001600182015481526020016002820160009054906101000a900473ffffffffffffffffffffffffffffffffffffffff1673ffffffffffffffffffffffffffffffffffffffff1673ffffffffffffffffffffffffffffffffffffffff1681526020016002820160149054906101000a900460ff1615151515815250509050806060015181602001518260400151935093509350509193909250565b61054882826040516024016104c6929190610c53565b6040516020818303038152906040527f4b5c4277000000000000000000000000000000000000000000000000000000007bffffffffffffffffffffffffffffffffffffffffffffffffffffffff19166020820180517bffffffffffffffffffffffffffffffffffffffffffffffffffffffff838183161783525050505061054c565b5050565b6105638161055b610566610587565b63ffffffff16565b50565b60006a636f6e736f6c652e6c6f679050600080835160208501845afa505050565b610592819050919050565b61059a610c8a565b565b6000604051905090565b600080fd5b600080fd5b600080fd5b600080fd5b6000601f19601f8301169050919050565b7f4e487b7100000000000000000000000000000000000000000000000000000000600052604160045260246000fd5b610603826105ba565b810181811067ffffffffffffffff82111715610622576106216105cb565b5b80604052505050565b600061063561059c565b905061064182826105fa565b919050565b600067ffffffffffffffff821115610661576106606105cb565b5b61066a826105ba565b9050602081019050919050565b82818337600083830152505050565b600061069961069484610646565b61062b565b9050828152602081018484840111156106b5576106b46105b5565b5b6106c0848285610677565b509392505050565b600082601f8301126106dd576106dc6105b0565b5b81356106ed848260208601610686565b91505092915050565b60006020828403121561070c5761070b6105a6565b5b600082013567ffffffffffffffff81111561072a576107296105ab565b5b610736848285016106c8565b91505092915050565b600081519050919050565b600082825260208201905092915050565b60005b8381101561077957808201518184015260208101905061075e565b60008484015250505050565b60006107908261073f565b61079a818561074a565b93506107aa81856020860161075b565b6107b3816105ba565b840191505092915050565b6000819050919050565b6107d1816107be565b82525050565b600073ffffffffffffffffffffffffffffffffffffffff82169050919050565b6000610802826107d7565b9050919050565b610812816107f7565b82525050565b60008115159050919050565b61082d81610818565b82525050565b6000608082019050818103600083015261084d8187610785565b905061085c60208301866107c8565b6108696040830185610809565b6108766060830184610824565b95945050505050565b60006060820190506108946000830186610824565b6108a160208301856107c8565b6108ae6040830184610809565b949350505050565b600081905092915050565b60006108cc8261073f565b6108d681856108b6565b93506108e681856020860161075b565b80840191505092915050565b60006108fe82846108c1565b915081905092915050565b7f4572726f3a20446f63756d656e746f206a61207265676973747261646f210000600082015250565b600061093f601e8361074a565b915061094a82610909565b602082019050919050565b6000602082019050818103600083015261096e81610932565b9050919050565b7f4e487b7100000000000000000000000000000000000000000000000000000000600052602260045260246000fd5b600060028204905060018216806109bc57607f821691505b6020821081036109cf576109ce610975565b5b50919050565b60008190508160005260206000209050919050565b60006020601f8301049050919050565b600082821b905092915050565b600060088302610a377fffffffffffffffffffffffffffffffffffffffffffffffffffffffffffffffff826109fa565b610a4186836109fa565b95508019841693508086168417925050509392505050565b6000819050919050565b6000610a7e610a79610a74846107be565b610a59565b6107be565b9050919050565b6000819050919050565b610a9883610a63565b610aac610aa482610a85565b848454610a07565b825550505050565b600090565b610ac1610ab4565b610acc818484610a8f565b505050565b5b81811015610af057610ae5600082610ab9565b600181019050610ad2565b5050565b601f821115610b3557610b06816109d5565b610b0f846109ea565b81016020851015610b1e578190505b610b32610b2a856109ea565b830182610ad1565b50505b505050565b600082821c905092915050565b6000610b5860001984600802610b3a565b1980831691505092915050565b6000610b718383610b47565b9150826002028217905092915050565b610b8a8261073f565b67ffffffffffffffff811115610ba357610ba26105cb565b5b610bad82546109a4565b610bb8828285610af4565b600060209050601f831160018114610beb5760008415610bd9578287015190505b610be38582610b65565b865550610c4b565b601f198416610bf9866109d5565b60005b82811015610c2157848901518255600182019150602085019450602081019050610bfc565b86831015610c3e5784890151610c3a601f891682610b47565b8355505b6001600288020188555050505b505050505050565b60006040820190508181036000830152610c6d8185610785565b90508181036020830152610c818184610785565b90509392505050565b7f4e487b7100000000000000000000000000000000000000000000000000000000600052605160045260246000fdfea264697066735822122056ccb6893faf3de3b613a12ae23f7a3eaf58ab927730d9ce79a2085e7f2fe35064736f6c634300081c0033",
  "linkReferences": {},
  "deployedLinkReferences": {}
}